:020000040800F2
:1000000000000120050300080B030008110300088D
:1000100033030008390300085B03000800000000F8
:100020000000000000000000000000007D03000848
:100030008303000800000000890300088F03000804
:10004000AD030008AD030008AD030008AD030008D0
:10005000AD030008AD030008AD030008AD030008C0
:10006000AD030008AD03000831090008AD03000826
:10007000AD030008AD030008AD030008AD030008A0
:10008000AD030008AD030008AD0300080000000048
:100090000000000000000000000000003F09000810
:1000A000AD030008AD030008AD030008AD03000870
:1000B000AD030008AD030008AD030008AD03000860
:1000C000AD030008AD030008AD030008AD03000850
:1000D000AD030008AD030008AD03000800000000F8
:1000E000AD030008AD030008AD03000800000000E8
:1000F000000000000000000000000000AD03000848
:1001000000000000AD030008AD030008AD030008C7
:1001100000000000000000000000000000000000DF
:10012000AD030008AD030008AD030008AD030008EF
:10013000AD03000800000000000000000000000007
:10014000000000000000000000000000AD030008F7
:10015000AD030008AD030008AD030008AD030008BF
:10016000AD030008AD03000800000000000000001F
:10017000000000000000000000000000000000007F
:1001800000000000AD0300080000000000000000B7
:10019000AD03000880B596B000AF00F037F94F4BC3
:1001A0007B6524E07B6D1A1D7A651B683B647B6D63
:1001B0001A1D7A651B68FB637B6D1A1D7A651B68C7
:1001C000BB633B6C7B63FB6B3B63BB6BFB623B6B5F
:1001D000BB6207E07A6B131D7B63BB6A191DB962B2
:1001E00012681A60FA6ABB6A9A42F3D800BF7B6D44
:1001F0003B4A9342D6D33B4B3B651AE03B6D1A1DFD
:100200003A651B68BB643B6D1A1D3A651B687B64CD
:10021000BB6C7B627B6C3B627B6AFB6104E0FB69CD
:100220001A1DFA6100221A603A6AFB699A42F6D8EE
:1002300000BF3B6D2C4A9342E0D300F0F5F83A1D25
:1002400007F108031146184600F0CEF8274A284B5C
:10025000D31A9B103B610023FB6007E0244AFB6834
:1002600052F823309847FB680133FB603A69FB681A
:100270009A42F3DC1F4A204BD31A9B103B610023A8
:10028000FB6007E01C4AFB6852F823309847FB6884
:100290000133FB603A69FB689A42F3DC00BFBB683C
:1002A0007A681146184600F06BF9F864134A144B4B
:1002B000D31A9B10BB61BB697B6108E07B69013B82
:1002C0000F4A52F8233098477B69013B7B617B6979
:1002D000002BF3DC00BFF86C00F080F8B4030008DA
:1002E000CC030008CC030008DC030008DC03000892
:1002F000DC030008DC030008DC030008DC03000862
:10030000DC0300082548004700BF80B400AFFEE7CB
:100310001EF0040F0CBFEFF30880EFF30980714665
:100320001F4A104700BF80B483B000AF78603960C7
:10033000FEE780B400AFFEE71EF0040F0CBFEFF342
:100340000880EFF309807146164A104700BF80B459
:1003500083B000AF78603960FEE71EF0040F0CBF79
:10036000EFF30880EFF3098071460F4A104700BF92
:1003700080B483B000AF78603960FEE780B400AF2E
:10038000FEE780B400AFFEE780B400AFFEE780B4C4
:1003900000AF00BFBD4680BC70470000950100085B
:1003A000270300084F0300087103000880B400AF62
:0203B000FEE766
:1003B400FC0D00080000002014000020FC0D0008C3
:1003C400000000100000001014000020180000209D
:0803D400000000100000001001
:1003DC0080B582B000AF786000F03CF880B483B098
:1003EC0000AF786039607B6801221A603B68034A71
:1003FC001A6000BF0C37BD4680BC7047000000205F
:10040C0080B500AF00F02AF8024B034A9A6000BF97
:10041C0080BD00BF00ED00E00000000880B500AF1B
:10042C0000F028F800BF80BD80B400AFBFF34F8F41
:10043C0000BF064BDB6803F4E0620449044B134332
:10044C00CB60BFF34F8F00BF00BFFDE700ED00E0B6
:10045C000400FA0580B500AFFFF7E6FF80B400AFEB
:10046C00034B4FF000629A6000BFBD4680BC7047E2
:10047C0000ED00E080B487B000AF00233B610023A7
:10048C007B610223FB600023BB6002237B60344B47
:10049C009B6803F00C033B613B69082B11D03B6953
:1004AC00082B44D83B69002B03D03B69042B04D0A8
:1004BC003DE02C4B2C4A1A603DE02A4B2B4A1A602B
:1004CC0039E0274B5B689B0D03F00103BB60244BA9
:1004DC005B6803F03F037B60BB68002B0CD0234AA6
:1004EC007B68B2FBF3F31E4A52689209C2F308020E
:1004FC0002FB03F37B610BE01B4A7B68B2FBF3F35B
:10050C00174A52689209C2F3080202FB03F37B619B
:10051C00134B5B681B0C03F0030301335B00FB60A4
:10052C007A69FB68B2FBF3F30E4A136003E00D4BE0
:10053C000D4A1A6000BF0A4B9B681B0903F00F039E
:10054C000B4AD35C3B61074B1A683B6922FA03F3F5
:10055C00044A136000BF1C37BD4680BC704700BF07
:10056C0000380240080000200024F40000127A0039
:10057C00AC0D000880B582B000AF00F025FA002069
:10058C0000F030FA012000F02DFA6E2000F02AFA6B
:10059C0000237B6000237B6009E07B68D9B20023D9
:1005AC000122412000F0ACFA7B6801337B607B6850
:1005BC00062BF2D9022300220921412000F0A0FAD7
:1005CC00022300220421422000F09AFA0122002189
:1005DC00092000F023FB01220121042000F01EFB66
:1005EC00092000F0AFFB042000F0ACFB172000F05A
:1005FC004DFA0A2000F04AFAC84B1B78DBB2092BE3
:10060C0000F2808101A252F823F000BF41060008DD
:10061C0089060008D10600081907000861070008C0
:10062C00A9070008F107000839080008810800082C
:10063C00C908000801220021412000F0C3FA012260
:10064C000121412000F0BEFA01220221412000F0DC
:10065C00B9FA01220321412000F0B4FA012204214D
:10066C00412000F0AFFA01220521412000F0AAFA46
:10067C0000220621412000F0A5FA44E100220021CD
:10068C00412000F09FFA01220121412000F09AFA4A
:10069C0001220221412000F095FA00220321412081
:1006AC0000F090FA00220421412000F08BFA002285
:1006BC000521412000F086FA00220621412000F09D
:1006CC0081FA20E101220021412000F07BFA012275
:1006DC000121412000F076FA00220221412000F095
:1006EC0071FA01220321412000F06CFA012204214D
:1006FC00412000F067FA00220521412000F062FA47
:10070C0001220621412000F05DFAFCE001220021CB
:10071C00412000F057FA01220121412000F052FA49
:10072C0001220221412000F04DFA01220321412037
:10073C0000F048FA00220421412000F043FA002284
:10074C000521412000F03EFA01220621412000F053
:10075C0039FAD8E000220021412000F033FA0122BE
:10076C000121412000F02EFA01220221412000F04B
:10077C0029FA00220321412000F024FA002204214E
:10078C00412000F01FFA01220521412000F01AFA45
:10079C0001220621412000F015FAB4E001220021CB
:1007AC00412000F00FFA00220121412000F00AFA4A
:1007BC0001220221412000F005FA012203214120EF
:1007CC0000F000FA00220421412000F0FBF9012284
:1007DC000521412000F0F6F901220621412000F00C
:1007EC00F1F990E001220021412000F0EBF9002208
:1007FC000121412000F0E6F901220221412000F004
:10080C00E1F901220321412000F0DCF9012204214D
:10081C00412000F0D7F901220521412000F0D2F946
:10082C0001220621412000F0CDF96CE001220021CB
:10083C00412000F0C7F901220121412000F0C2F94A
:10084C0001220221412000F0BDF9002203214120A8
:10085C0000F0B8F900220421412000F0B3F9002285
:10086C000521412000F0AEF900220621412000F0C4
:10087C00A9F948E001220021412000F0A3F901224E
:10088C000121412000F09EF901220221412000F0BB
:10089C0099F901220321412000F094F9012204214D
:1008AC00412000F08FF901220521412000F08AF946
:1008BC0001220621412000F085F924E001220021CB
:1008CC00412000F07FF901220121412000F07AF94A
:1008DC0001220221412000F075F90122032141205F
:1008EC0000F070F900220421412000F06BF9012284
:1008FC000521412000F066F901220621412000F07B
:10090C0061F900E000BF00237B6002E07B680133EB
:10091C007B607B68024A9342F8D96DE61500002093
:10092C003F420F0080B500AF042000F009F800BF73
:10093C0080BD80B500AF092000F002F800BF80BD7B
:10094C0080B582B000AF0346FB71092000F010FAAD
:10095C00042000F00DFAFB79092B12D1184B1B78EF
:10096C00DBB2082B06D8164B1B78DBB20133DAB29C
:10097C00134B1A70134B5B69124A43F400735361A7
:10098C0014E0FB79042B11D10D4B1B78DBB2002B3F
:10099C0006D00B4B1B78DBB2013BDAB2084B1A705A
:1009AC00084B5B69074A43F010035361092000F0C0
:1009BC00C9F9042000F0C6F900BF0837BD4680BD58
:1009CC0015000020003C014080B400AF044B1B68B4
:1009DC00034A43F00103136000BFBD4680BC70475F
:1009EC000038024080B485B000AF0346FB71FB7940
:1009FC005B09FB73FB7903F01F03BB73FB7B032BBE
:100A0C0036D801A252F823F0250A00083B0A000848
:100A1C00510A0008670A0008184B1B68BA7B0121B1
:100A2C0001FA02F21146154A0B43136021E0144BF4
:100A3C001B68BA7B012101FA02F21146104A0B43E2
:100A4C00136016E00F4B1B68BA7B012101FA02F20E
:100A5C0011460C4A0B4313600BE00B4B1B68BA7B23
:100A6C00012101FA02F21146074A0B43136000E020
:100A7C0000BF00BF1437BD4680BC70473038024001
:100A8C00343802404038024044380240B0B48DB093
:100A9C0000AF0346FB71FB79EF2B29D8174B07F1FD
:100AAC000C041D460FCD0FC495E80F0084E80F0011
:100ABC00FB795B0987F82F30FB7903F01F0387F86C
:100ACC002E3097F82F309B0030333B4453F8243CA6
:100ADC001A6897F82E30012101FA03F3194697F89A
:100AEC002F309B0030333B4453F8243C0A431A60AC
:100AFC0000BF3437BD46B0BC704700BFBC0D00080A
:100B0C0090B486B000AF0446084611461A462346F8
:100B1C00FB710346BB710B467B7113463B71FB7932
:100B2C00413BFB75FB7D264A52F823303B613B79F8
:100B3C0003F00103FB733B795B08BB733B691B68D8
:100B4C00BA795200032101FA02F2D2431A403B69EE
:100B5C001A603B691B687979BA79520001FA02F282
:100B6C001A433B691A603B695B68BA79012101FA47
:100B7C0002F2D2431A403B695A603B695B68F97BCD
:100B8C00BA7901FA02F21A433B695A603B69DB6895
:100B9C00BA795200032101FA02F2D2431A403B699E
:100BAC00DA603B69DB68B97BBA79520001FA02F270
:100BBC001A433B69DA6000BF1837BD4690BC7047DA
:100BCC000C00002080B485B000AF0346FB710B46CF
:100BDC00BB7113467B71FB79413BFB73FB7B0E4A6C
:100BEC0052F82330BB60BB685B69BA79012101FA0A
:100BFC0002F2D2431A40BB685A61BB685B697979CF
:100C0C00BA7901FA02F21A43BB685A6100BF143771
:100C1C00BD4680BC704700BF0C00002080B485B07E
:100C2C0000AF0346FB710B46BB7113467B71FB791E
:100C3C00032B02D83E4BFB6010E0FB79072B02D84C
:100C4C003C4BFB600AE0FB790B2B02D83A4BFB6068
:100C5C0004E0FB790F2B01D8384BFB607B79022B1E
:100C6C0032D0022B45DC002B02D0012B16D040E0F9
:100C7C00334B9B68FA79012101FA02F21146304A92
:100C8C000B4393602E4BDB68FA79012101FA02F2D7
:100C9C00D24311462A4A0B40D3602AE0284B9B686A
:100CAC00FA79012101FA02F2D2431146244A0B408F
:100CBC009360234BDB68FA79012101FA02F21146A9
:100CCC001F4A0B43D36014E01D4B9B68FA7901213A
:100CDC0001FA02F211461A4A0B439360184BDB6877
:100CEC00FA79012101FA02F21146154A0B43D3603D
:100CFC0000BFFB7903F00303DBB29B00FB72FB68C4
:100D0C001B68FA7A0F2101FA02F2D2431A40FB68EF
:100D1C001A60FB681B68B979FA7A01FA02F21A4375
:100D2C00FB681A6000BF1437BD4680BC704700BF1B
:100D3C00083801400C38014010380140143801408B
:100D4C00003C014080B483B000AF0346FB71074BFD
:100D5C001B68FA79012101FA02F21146034A0B438E
:100D6C00136000BF0C37BD4680BC7047003C01408F
:100D7C0080B483B000AF0346FB71084B1B68FA7953
:100D8C00012101FA02F2D2431146044A0B401360CE
:100D9C0000BF0C37BD4680BC704700BF003C014013
:100DAC00000000000000000001020304060708090F
:100DBC0000E100E004E100E008E100E00CE100E00B
:100DCC0010E100E014E100E018E100E01CE100E0BB
:100DDC0080E100E084E100E088E100E08CE100E0EB
:100DEC0090E100E094E100E098E100E09CE100E09B
:100DFC0014000020000000000024F4000000024059
:040E0C00000402409C
:040000050800019559
:00000001FF
